{
  "contractName": "Refund",
  "abi": [
    {
      "inputs": [
        {
          "internalType": "contract IERC20",
          "name": "_stakingToken",
          "type": "address"
        },
        {
          "internalType": "contract IERC20",
          "name": "_refundToken",
          "type": "address"
        }
      ],
      "stateMutability": "nonpayable",
      "type": "constructor"
    },
    {
      "anonymous": false,
      "inputs": [
        {
          "indexed": false,
          "internalType": "address",
          "name": "claimer",
          "type": "address"
        },
        {
          "indexed": false,
          "internalType": "uint256",
          "name": "amount",
          "type": "uint256"
        }
      ],
      "name": "Claimed",
      "type": "event"
    },
    {
      "anonymous": false,
      "inputs": [
        {
          "indexed": true,
          "internalType": "address",
          "name": "previousOwner",
          "type": "address"
        },
        {
          "indexed": true,
          "internalType": "address",
          "name": "newOwner",
          "type": "address"
        }
      ],
      "name": "OwnershipTransferred",
      "type": "event"
    },
    {
      "anonymous": false,
      "inputs": [
        {
          "indexed": false,
          "internalType": "address",
          "name": "token",
          "type": "address"
        },
        {
          "indexed": false,
          "internalType": "uint256",
          "name": "amount",
          "type": "uint256"
        }
      ],
      "name": "Rescued",
      "type": "event"
    },
    {
      "inputs": [],
      "name": "MAX_TOKENS",
      "outputs": [
        {
          "internalType": "uint256",
          "name": "",
          "type": "uint256"
        }
      ],
      "stateMutability": "view",
      "type": "function",
      "constant": true
    },
    {
      "inputs": [
        {
          "internalType": "address",
          "name": "",
          "type": "address"
        }
      ],
      "name": "claimed",
      "outputs": [
        {
          "internalType": "bool",
          "name": "",
          "type": "bool"
        }
      ],
      "stateMutability": "view",
      "type": "function",
      "constant": true
    },
    {
      "inputs": [],
      "name": "owner",
      "outputs": [
        {
          "internalType": "address",
          "name": "",
          "type": "address"
        }
      ],
      "stateMutability": "view",
      "type": "function",
      "constant": true
    },
    {
      "inputs": [],
      "name": "refundToken",
      "outputs": [
        {
          "internalType": "contract IERC20",
          "name": "",
          "type": "address"
        }
      ],
      "stateMutability": "view",
      "type": "function",
      "constant": true
    },
    {
      "inputs": [],
      "name": "renounceOwnership",
      "outputs": [],
      "stateMutability": "nonpayable",
      "type": "function"
    },
    {
      "inputs": [],
      "name": "stakingToken",
      "outputs": [
        {
          "internalType": "contract IERC20",
          "name": "",
          "type": "address"
        }
      ],
      "stateMutability": "view",
      "type": "function",
      "constant": true
    },
    {
      "inputs": [],
      "name": "totalClaimed",
      "outputs": [
        {
          "internalType": "uint256",
          "name": "",
          "type": "uint256"
        }
      ],
      "stateMutability": "view",
      "type": "function",
      "constant": true
    },
    {
      "inputs": [
        {
          "internalType": "address",
          "name": "newOwner",
          "type": "address"
        }
      ],
      "name": "transferOwnership",
      "outputs": [],
      "stateMutability": "nonpayable",
      "type": "function"
    },
    {
      "inputs": [],
      "name": "claim",
      "outputs": [],
      "stateMutability": "nonpayable",
      "type": "function"
    },
    {
      "inputs": [
        {
          "internalType": "address",
          "name": "owner",
          "type": "address"
        }
      ],
      "name": "refundAmount",
      "outputs": [
        {
          "internalType": "uint256",
          "name": "",
          "type": "uint256"
        }
      ],
      "stateMutability": "view",
      "type": "function",
      "constant": true
    },
    {
      "inputs": [
        {
          "internalType": "contract IERC20",
          "name": "token",
          "type": "address"
        }
      ],
      "name": "rescueTokens",
      "outputs": [],
      "stateMutability": "nonpayable",
      "type": "function"
    }
  ],
  "bytecode": "0x60a060405260026080908152503480156200001957600080fd5b506040516200187a3803806200187a83398181016040528101906200003f9190620001cc565b6200005f62000053620000e960201b60201c565b620000f160201b60201c565b81600260006101000a81548173ffffffffffffffffffffffffffffffffffffffff021916908373ffffffffffffffffffffffffffffffffffffffff16021790555080600360006101000a81548173ffffffffffffffffffffffffffffffffffffffff021916908373ffffffffffffffffffffffffffffffffffffffff16021790555050506200026f565b600033905090565b60008060009054906101000a900473ffffffffffffffffffffffffffffffffffffffff169050816000806101000a81548173ffffffffffffffffffffffffffffffffffffffff021916908373ffffffffffffffffffffffffffffffffffffffff1602179055508173ffffffffffffffffffffffffffffffffffffffff168173ffffffffffffffffffffffffffffffffffffffff167f8be0079c531659141344cd1fd0a4f28419497f9722a3daafe3b4186f6b6457e060405160405180910390a35050565b600081519050620001c68162000255565b92915050565b60008060408385031215620001e057600080fd5b6000620001f085828601620001b5565b92505060206200020385828601620001b5565b9150509250929050565b60006200021a8262000235565b9050919050565b60006200022e826200020d565b9050919050565b600073ffffffffffffffffffffffffffffffffffffffff82169050919050565b620002608162000221565b81146200026c57600080fd5b50565b6080516115ef6200028b60003960006109a101526115ef6000f3fe608060405234801561001057600080fd5b50600436106100a85760003560e01c80638da5cb5b116100715780638da5cb5b14610119578063acde5d2814610137578063c884ef8314610167578063d54ad2a114610197578063f2fde38b146101b5578063f47c84c5146101d1576100a8565b8062ae3bf8146100ad5780634e71d92d146100c95780635cb732be146100d3578063715018a6146100f157806372f702f3146100fb575b600080fd5b6100c760048036038101906100c29190610e6a565b6101ef565b005b6100d1610360565b005b6100db6104f3565b6040516100e891906110aa565b60405180910390f35b6100f9610519565b005b6101036105a1565b60405161011091906110aa565b60405180910390f35b6101216105c7565b60405161012e919061104b565b60405180910390f35b610151600480360381019061014c9190610e18565b6105f0565b60405161015e91906111a7565b60405180910390f35b610181600480360381019061017c9190610e18565b610881565b60405161018e919061108f565b60405180910390f35b61019f6108a1565b6040516101ac91906111a7565b60405180910390f35b6101cf60048036038101906101ca9190610e18565b6108a7565b005b6101d961099f565b6040516101e691906111a7565b60405180910390f35b6101f76109c3565b73ffffffffffffffffffffffffffffffffffffffff166102156105c7565b73ffffffffffffffffffffffffffffffffffffffff161461026b576040517f08c379a000000000000000000000000000000000000000000000000000000000815260040161026290611127565b60405180910390fd5b60008173ffffffffffffffffffffffffffffffffffffffff166370a08231306040518263ffffffff1660e01b81526004016102a6919061104b565b60206040518083038186803b1580156102be57600080fd5b505afa1580156102d2573d6000803e3d6000fd5b505050506040513d601f19601f820116820180604052508101906102f69190610e93565b905061032333828473ffffffffffffffffffffffffffffffffffffffff166109cb9092919063ffffffff16565b7f8aec0ce3dadffacf4b7a963e0fed1ff2e6151b4c95d4a65acafa9d12996304028282604051610354929190611066565b60405180910390a15050565b600160003373ffffffffffffffffffffffffffffffffffffffff1673ffffffffffffffffffffffffffffffffffffffff16815260200190815260200160002060009054906101000a900460ff16156103ed576040517f08c379a00000000000000000000000000000000000000000000000000000000081526004016103e490611147565b60405180910390fd5b60006103f8336105f0565b90506104473382600360009054906101000a900473ffffffffffffffffffffffffffffffffffffffff1673ffffffffffffffffffffffffffffffffffffffff166109cb9092919063ffffffff16565b7fd8138f8a3f377c5259ca548e70e4c2de94f129f5a11036a15b69513cba2b426a3382604051610478929190611066565b60405180910390a1806004600082825461049291906111f4565b9250508190555060018060003373ffffffffffffffffffffffffffffffffffffffff1673ffffffffffffffffffffffffffffffffffffffff16815260200190815260200160002060006101000a81548160ff02191690831515021790555050565b600360009054906101000a900473ffffffffffffffffffffffffffffffffffffffff1681565b6105216109c3565b73ffffffffffffffffffffffffffffffffffffffff1661053f6105c7565b73ffffffffffffffffffffffffffffffffffffffff1614610595576040517f08c379a000000000000000000000000000000000000000000000000000000000815260040161058c90611127565b60405180910390fd5b61059f6000610a51565b565b600260009054906101000a900473ffffffffffffffffffffffffffffffffffffffff1681565b60008060009054906101000a900473ffffffffffffffffffffffffffffffffffffffff16905090565b6000600160008373ffffffffffffffffffffffffffffffffffffffff1673ffffffffffffffffffffffffffffffffffffffff16815260200190815260200160002060009054906101000a900460ff161561064d576000905061087c565b610879600260009054906101000a900473ffffffffffffffffffffffffffffffffffffffff1673ffffffffffffffffffffffffffffffffffffffff166318160ddd6040518163ffffffff1660e01b815260040160206040518083038186803b1580156106b857600080fd5b505afa1580156106cc573d6000803e3d6000fd5b505050506040513d601f19601f820116820180604052508101906106f09190610e93565b61086b600260009054906101000a900473ffffffffffffffffffffffffffffffffffffffff1673ffffffffffffffffffffffffffffffffffffffff166370a08231866040518263ffffffff1660e01b815260040161074e919061104b565b60206040518083038186803b15801561076657600080fd5b505afa15801561077a573d6000803e3d6000fd5b505050506040513d601f19601f8201168201806040525081019061079e9190610e93565b61085d600454600360009054906101000a900473ffffffffffffffffffffffffffffffffffffffff1673ffffffffffffffffffffffffffffffffffffffff166370a08231306040518263ffffffff1660e01b81526004016107ff919061104b565b60206040518083038186803b15801561081757600080fd5b505afa15801561082b573d6000803e3d6000fd5b505050506040513d601f19601f8201168201806040525081019061084f9190610e93565b610b1590919063ffffffff16565b610b2b90919063ffffffff16565b610b4190919063ffffffff16565b90505b919050565b60016020528060005260406000206000915054906101000a900460ff1681565b60045481565b6108af6109c3565b73ffffffffffffffffffffffffffffffffffffffff166108cd6105c7565b73ffffffffffffffffffffffffffffffffffffffff1614610923576040517f08c379a000000000000000000000000000000000000000000000000000000000815260040161091a90611127565b60405180910390fd5b600073ffffffffffffffffffffffffffffffffffffffff168173ffffffffffffffffffffffffffffffffffffffff161415610993576040517f08c379a000000000000000000000000000000000000000000000000000000000815260040161098a906110e7565b60405180910390fd5b61099c81610a51565b50565b7f000000000000000000000000000000000000000000000000000000000000000081565b600033905090565b610a4c8363a9059cbb60e01b84846040516024016109ea929190611066565b604051602081830303815290604052907bffffffffffffffffffffffffffffffffffffffffffffffffffffffff19166020820180517bffffffffffffffffffffffffffffffffffffffffffffffffffffffff8381831617835250505050610b57565b505050565b60008060009054906101000a900473ffffffffffffffffffffffffffffffffffffffff169050816000806101000a81548173ffffffffffffffffffffffffffffffffffffffff021916908373ffffffffffffffffffffffffffffffffffffffff1602179055508173ffffffffffffffffffffffffffffffffffffffff168173ffffffffffffffffffffffffffffffffffffffff167f8be0079c531659141344cd1fd0a4f28419497f9722a3daafe3b4186f6b6457e060405160405180910390a35050565b60008183610b2391906111f4565b905092915050565b60008183610b39919061127b565b905092915050565b60008183610b4f919061124a565b905092915050565b6000610bb9826040518060400160405280602081526020017f5361666545524332303a206c6f772d6c6576656c2063616c6c206661696c65648152508573ffffffffffffffffffffffffffffffffffffffff16610c1e9092919063ffffffff16565b9050600081511115610c195780806020019051810190610bd99190610e41565b610c18576040517f08c379a0000000000000000000000000000000000000000000000000000000008152600401610c0f90611187565b60405180910390fd5b5b505050565b6060610c2d8484600085610c36565b90509392505050565b606082471015610c7b576040517f08c379a0000000000000000000000000000000000000000000000000000000008152600401610c7290611107565b60405180910390fd5b610c8485610d4a565b610cc3576040517f08c379a0000000000000000000000000000000000000000000000000000000008152600401610cba90611167565b60405180910390fd5b6000808673ffffffffffffffffffffffffffffffffffffffff168587604051610cec9190611034565b60006040518083038185875af1925050503d8060008114610d29576040519150601f19603f3d011682016040523d82523d6000602084013e610d2e565b606091505b5091509150610d3e828286610d5d565b92505050949350505050565b600080823b905060008111915050919050565b60608315610d6d57829050610dbd565b600083511115610d805782518084602001fd5b816040517f08c379a0000000000000000000000000000000000000000000000000000000008152600401610db491906110c5565b60405180910390fd5b9392505050565b600081359050610dd38161155d565b92915050565b600081519050610de881611574565b92915050565b600081359050610dfd8161158b565b92915050565b600081519050610e12816115a2565b92915050565b600060208284031215610e2a57600080fd5b6000610e3884828501610dc4565b91505092915050565b600060208284031215610e5357600080fd5b6000610e6184828501610dd9565b91505092915050565b600060208284031215610e7c57600080fd5b6000610e8a84828501610dee565b91505092915050565b600060208284031215610ea557600080fd5b6000610eb384828501610e03565b91505092915050565b610ec5816112d5565b82525050565b610ed4816112e7565b82525050565b6000610ee5826111c2565b610eef81856111d8565b9350610eff818560208601611353565b80840191505092915050565b610f148161132f565b82525050565b6000610f25826111cd565b610f2f81856111e3565b9350610f3f818560208601611353565b610f48816113e4565b840191505092915050565b6000610f606026836111e3565b9150610f6b826113f5565b604082019050919050565b6000610f836026836111e3565b9150610f8e82611444565b604082019050919050565b6000610fa66020836111e3565b9150610fb182611493565b602082019050919050565b6000610fc9601a836111e3565b9150610fd4826114bc565b602082019050919050565b6000610fec601d836111e3565b9150610ff7826114e5565b602082019050919050565b600061100f602a836111e3565b915061101a8261150e565b604082019050919050565b61102e81611325565b82525050565b60006110408284610eda565b915081905092915050565b60006020820190506110606000830184610ebc565b92915050565b600060408201905061107b6000830185610ebc565b6110886020830184611025565b9392505050565b60006020820190506110a46000830184610ecb565b92915050565b60006020820190506110bf6000830184610f0b565b92915050565b600060208201905081810360008301526110df8184610f1a565b905092915050565b6000602082019050818103600083015261110081610f53565b9050919050565b6000602082019050818103600083015261112081610f76565b9050919050565b6000602082019050818103600083015261114081610f99565b9050919050565b6000602082019050818103600083015261116081610fbc565b9050919050565b6000602082019050818103600083015261118081610fdf565b9050919050565b600060208201905081810360008301526111a081611002565b9050919050565b60006020820190506111bc6000830184611025565b92915050565b600081519050919050565b600081519050919050565b600081905092915050565b600082825260208201905092915050565b60006111ff82611325565b915061120a83611325565b9250827fffffffffffffffffffffffffffffffffffffffffffffffffffffffffffffffff0382111561123f5761123e611386565b5b828201905092915050565b600061125582611325565b915061126083611325565b9250826112705761126f6113b5565b5b828204905092915050565b600061128682611325565b915061129183611325565b9250817fffffffffffffffffffffffffffffffffffffffffffffffffffffffffffffffff04831182151516156112ca576112c9611386565b5b828202905092915050565b60006112e082611305565b9050919050565b60008115159050919050565b60006112fe826112d5565b9050919050565b600073ffffffffffffffffffffffffffffffffffffffff82169050919050565b6000819050919050565b600061133a82611341565b9050919050565b600061134c82611305565b9050919050565b60005b83811015611371578082015181840152602081019050611356565b83811115611380576000848401525b50505050565b7f4e487b7100000000000000000000000000000000000000000000000000000000600052601160045260246000fd5b7f4e487b7100000000000000000000000000000000000000000000000000000000600052601260045260246000fd5b6000601f19601f8301169050919050565b7f4f776e61626c653a206e6577206f776e657220697320746865207a65726f206160008201527f6464726573730000000000000000000000000000000000000000000000000000602082015250565b7f416464726573733a20696e73756666696369656e742062616c616e636520666f60008201527f722063616c6c0000000000000000000000000000000000000000000000000000602082015250565b7f4f776e61626c653a2063616c6c6572206973206e6f7420746865206f776e6572600082015250565b7f43616c6c65722068617320616c726561647920636c61696d6564000000000000600082015250565b7f416464726573733a2063616c6c20746f206e6f6e2d636f6e7472616374000000600082015250565b7f5361666545524332303a204552433230206f7065726174696f6e20646964206e60008201527f6f74207375636365656400000000000000000000000000000000000000000000602082015250565b611566816112d5565b811461157157600080fd5b50565b61157d816112e7565b811461158857600080fd5b50565b611594816112f3565b811461159f57600080fd5b50565b6115ab81611325565b81146115b657600080fd5b5056fea26469706673582212206b46c65b8b3608099e9be7a4843672462844983037147797fba42ee35c46af9264736f6c63430008040033",
  "immutableReferences": {
    "1656": [
      {
        "length": 32,
        "start": 2465
      }
    ]
  },
  "source": "// SPDX-License-Identifier: MIT\npragma solidity ^0.8.0;\n\nimport \"@openzeppelin/contracts/access/Ownable.sol\";\nimport \"@openzeppelin/contracts/token/ERC20/IERC20.sol\";\nimport \"@openzeppelin/contracts/token/ERC20/utils/SafeERC20.sol\";\nimport \"@openzeppelin/contracts/utils/math/SafeMath.sol\";\n\ncontract Refund is Ownable {\n  using SafeMath for uint256;\n  using SafeERC20 for IERC20;\n\n  uint256 public immutable MAX_TOKENS = 2;\n  mapping(address => bool) public claimed;\n  IERC20 public stakingToken;\n  IERC20 public refundToken;\n  uint256 public totalClaimed;\n\n  event Claimed(address claimer, uint256 amount);\n  event Rescued(address token, uint256 amount);\n\n  constructor(IERC20 _stakingToken, IERC20 _refundToken) {\n    stakingToken = _stakingToken;\n    refundToken = _refundToken;\n  }\n\n  function claim() public {\n    require(!claimed[msg.sender], \"Caller has already claimed\");\n    uint256 refund = refundAmount(msg.sender);\n    refundToken.safeTransfer(msg.sender, refund);\n    emit Claimed(msg.sender, refund);\n    totalClaimed += refund;\n    claimed[msg.sender] = true;\n  }\n\n  function refundAmount(address owner) public view returns (uint256) {\n    if (claimed[owner]) {\n      return 0;\n    }\n    return refundToken.balanceOf(address(this)).add(totalClaimed).mul(stakingToken.balanceOf(owner)).div(stakingToken.totalSupply());\n  }\n\n  function rescueTokens(IERC20 token) onlyOwner external {\n    uint256 balance = token.balanceOf(address(this));\n    token.safeTransfer(msg.sender, balance);\n    emit Rescued(address(token), balance);\n  }\n}\n",
  "sourcePath": "/home/home/poof-refund/contracts/Refund.sol",
  "compiler": {
    "name": "solc",
    "version": "0.8.4+commit.c7e474f2.Emscripten.clang"
  },
  "schemaVersion": "3.4.3",
  "updatedAt": "2021-09-05T20:44:26.936Z",
  "networkType": "ethereum",
  "devdoc": {
    "kind": "dev",
    "methods": {
      "owner()": {
        "details": "Returns the address of the current owner."
      },
      "renounceOwnership()": {
        "details": "Leaves the contract without owner. It will not be possible to call `onlyOwner` functions anymore. Can only be called by the current owner. NOTE: Renouncing ownership will leave the contract without an owner, thereby removing any functionality that is only available to the owner."
      },
      "transferOwnership(address)": {
        "details": "Transfers ownership of the contract to a new account (`newOwner`). Can only be called by the current owner."
      }
    },
    "version": 1
  },
  "userdoc": {
    "kind": "user",
    "methods": {},
    "version": 1
  }
}